{
  "contractName": "Delance",
  "abi": [
    {
      "inputs": [
        {
          "internalType": "address payable",
          "name": "_address",
          "type": "address"
        },
        {
          "internalType": "uint256",
          "name": "_deadline",
          "type": "uint256"
        }
      ],
      "stateMutability": "payable",
      "type": "constructor",
      "payable": true
    },
    {
      "anonymous": false,
      "inputs": [
        {
          "indexed": false,
          "internalType": "string",
          "name": "_title",
          "type": "string"
        },
        {
          "indexed": false,
          "internalType": "uint256",
          "name": "_amount",
          "type": "uint256"
        },
        {
          "indexed": false,
          "internalType": "bool",
          "name": "locked",
          "type": "bool"
        },
        {
          "indexed": false,
          "internalType": "bool",
          "name": "paid",
          "type": "bool"
        }
      ],
      "name": "RequestCreated",
      "type": "event"
    },
    {
      "anonymous": false,
      "inputs": [
        {
          "indexed": false,
          "internalType": "address payable",
          "name": "freelancer",
          "type": "address"
        },
        {
          "indexed": false,
          "internalType": "uint256",
          "name": "amount",
          "type": "uint256"
        }
      ],
      "name": "RequestPaid",
      "type": "event"
    },
    {
      "anonymous": false,
      "inputs": [
        {
          "indexed": false,
          "internalType": "bool",
          "name": "locked",
          "type": "bool"
        }
      ],
      "name": "RequestUnlocked",
      "type": "event"
    },
    {
      "inputs": [],
      "name": "deadline",
      "outputs": [
        {
          "internalType": "uint256",
          "name": "",
          "type": "uint256"
        }
      ],
      "stateMutability": "view",
      "type": "function",
      "constant": true
    },
    {
      "inputs": [],
      "name": "employer",
      "outputs": [
        {
          "internalType": "address payable",
          "name": "",
          "type": "address"
        }
      ],
      "stateMutability": "view",
      "type": "function",
      "constant": true
    },
    {
      "inputs": [],
      "name": "freelancer",
      "outputs": [
        {
          "internalType": "address payable",
          "name": "",
          "type": "address"
        }
      ],
      "stateMutability": "view",
      "type": "function",
      "constant": true
    },
    {
      "inputs": [
        {
          "internalType": "uint256",
          "name": "",
          "type": "uint256"
        }
      ],
      "name": "requests",
      "outputs": [
        {
          "internalType": "string",
          "name": "title",
          "type": "string"
        },
        {
          "internalType": "uint256",
          "name": "amount",
          "type": "uint256"
        },
        {
          "internalType": "bool",
          "name": "locked",
          "type": "bool"
        },
        {
          "internalType": "bool",
          "name": "paid",
          "type": "bool"
        }
      ],
      "stateMutability": "view",
      "type": "function",
      "constant": true
    },
    {
      "stateMutability": "payable",
      "type": "receive",
      "payable": true
    },
    {
      "inputs": [
        {
          "internalType": "string",
          "name": "_title",
          "type": "string"
        },
        {
          "internalType": "uint256",
          "name": "_amount",
          "type": "uint256"
        }
      ],
      "name": "createRequest",
      "outputs": [],
      "stateMutability": "nonpayable",
      "type": "function"
    },
    {
      "inputs": [],
      "name": "getAllRequest",
      "outputs": [
        {
          "components": [
            {
              "internalType": "string",
              "name": "title",
              "type": "string"
            },
            {
              "internalType": "uint256",
              "name": "amount",
              "type": "uint256"
            },
            {
              "internalType": "bool",
              "name": "locked",
              "type": "bool"
            },
            {
              "internalType": "bool",
              "name": "paid",
              "type": "bool"
            }
          ],
          "internalType": "struct Delance.Request[]",
          "name": "",
          "type": "tuple[]"
        }
      ],
      "stateMutability": "view",
      "type": "function",
      "constant": true
    },
    {
      "inputs": [
        {
          "internalType": "uint256",
          "name": "_index",
          "type": "uint256"
        }
      ],
      "name": "unlockRequest",
      "outputs": [],
      "stateMutability": "nonpayable",
      "type": "function"
    },
    {
      "inputs": [
        {
          "internalType": "uint256",
          "name": "_index",
          "type": "uint256"
        }
      ],
      "name": "withdraw",
      "outputs": [],
      "stateMutability": "nonpayable",
      "type": "function"
    }
  ],
  "bytecode": "0x60806040526000600460006101000a81548160ff021916908315150217905550604051620019c1380380620019c18339818101604052810190620000449190620001f8565b3373ffffffffffffffffffffffffffffffffffffffff168273ffffffffffffffffffffffffffffffffffffffff161415620000b6576040517f08c379a0000000000000000000000000000000000000000000000000000000008152600401620000ad90620002a0565b60405180910390fd5b336000806101000a81548173ffffffffffffffffffffffffffffffffffffffff021916908373ffffffffffffffffffffffffffffffffffffffff16021790555081600160006101000a81548173ffffffffffffffffffffffffffffffffffffffff021916908373ffffffffffffffffffffffffffffffffffffffff1602179055508042620001459190620002f1565b60028190555050506200034e565b600080fd5b600073ffffffffffffffffffffffffffffffffffffffff82169050919050565b6000620001858262000158565b9050919050565b620001978162000178565b8114620001a357600080fd5b50565b600081519050620001b7816200018c565b92915050565b6000819050919050565b620001d281620001bd565b8114620001de57600080fd5b50565b600081519050620001f281620001c7565b92915050565b6000806040838503121562000212576200021162000153565b5b60006200022285828601620001a6565b92505060206200023585828601620001e1565b9150509250929050565b600082825260208201905092915050565b7f656d706c6f7965722063616e6e6f7420686972652068696d73656c6600000000600082015250565b600062000288601c836200023f565b9150620002958262000250565b602082019050919050565b60006020820190508181036000830152620002bb8162000279565b9050919050565b7f4e487b7100000000000000000000000000000000000000000000000000000000600052601160045260246000fd5b6000620002fe82620001bd565b91506200030b83620001bd565b9250827fffffffffffffffffffffffffffffffffffffffffffffffffffffffffffffffff03821115620003435762000342620002c2565b5b828201905092915050565b611663806200035e6000396000f3fe60806040526004361061007f5760003560e01c806381d12c581161004e57806381d12c5814610133578063a37dda2c14610173578063aa6e90c01461019e578063ae200e79146101c757610086565b80631cc198671461008b57806329dcb0cf146100b45780632e1a7d4d146100df578063545569ba1461010857610086565b3661008657005b600080fd5b34801561009757600080fd5b506100b260048036038101906100ad9190610c54565b6101f2565b005b3480156100c057600080fd5b506100c96103bb565b6040516100d69190610c90565b60405180910390f35b3480156100eb57600080fd5b5061010660048036038101906101019190610c54565b6103c1565b005b34801561011457600080fd5b5061011d610738565b60405161012a9190610e93565b60405180910390f35b34801561013f57600080fd5b5061015a60048036038101906101559190610c54565b610869565b60405161016a9493929190610f0e565b60405180910390f35b34801561017f57600080fd5b5061018861094b565b6040516101959190610f9b565b60405180910390f35b3480156101aa57600080fd5b506101c560048036038101906101c091906110eb565b610971565b005b3480156101d357600080fd5b506101dc610b43565b6040516101e99190610f9b565b60405180910390f35b60008054906101000a900473ffffffffffffffffffffffffffffffffffffffff1673ffffffffffffffffffffffffffffffffffffffff163373ffffffffffffffffffffffffffffffffffffffff1614610280576040517f08c379a000000000000000000000000000000000000000000000000000000000815260040161027790611193565b60405180910390fd5b60038054905081108015610295575060008110155b6102d4576040517f08c379a00000000000000000000000000000000000000000000000000000000081526004016102cb906111ff565b60405180910390fd5b6000600382815481106102ea576102e961121f565b5b90600052602060002090600302019050600115158160020160009054906101000a900460ff16151514610352576040517f08c379a00000000000000000000000000000000000000000000000000000000081526004016103499061129a565b60405180910390fd5b60008160020160006101000a81548160ff0219169083151502179055507f6917bd44e44c6202f36553b9769ed68f429767151c48c8015c03d6f15d7e4e458160020160009054906101000a900460ff166040516103af91906112ba565b60405180910390a15050565b60025481565b600160009054906101000a900473ffffffffffffffffffffffffffffffffffffffff1673ffffffffffffffffffffffffffffffffffffffff163373ffffffffffffffffffffffffffffffffffffffff1614610451576040517f08c379a000000000000000000000000000000000000000000000000000000000815260040161044890611321565b60405180910390fd5b60038054905081108015610466575060008110155b6104a5576040517f08c379a000000000000000000000000000000000000000000000000000000000815260040161049c906111ff565b60405180910390fd5b60001515600460009054906101000a900460ff161515146104fb576040517f08c379a00000000000000000000000000000000000000000000000000000000081526004016104f29061138d565b60405180910390fd5b6000600382815481106105115761051061121f565b5b90600052602060002090600302019050600015158160020160009054906101000a900460ff16151514610579576040517f08c379a0000000000000000000000000000000000000000000000000000000008152600401610570906113f9565b60405180910390fd5b600015158160020160019054906101000a900460ff161515146105d1576040517f08c379a00000000000000000000000000000000000000000000000000000000081526004016105c890611465565b60405180910390fd5b6001600460006101000a81548160ff0219169083151502179055506000600160009054906101000a900473ffffffffffffffffffffffffffffffffffffffff1673ffffffffffffffffffffffffffffffffffffffff168260010154604051610638906114b6565b60006040518083038185875af1925050503d8060008114610675576040519150601f19603f3d011682016040523d82523d6000602084013e61067a565b606091505b50509050806106be576040517f08c379a00000000000000000000000000000000000000000000000000000000081526004016106b590611517565b60405180910390fd5b60018260020160016101000a81548160ff0219169083151502179055506000600460006101000a81548160ff0219169083151502179055507f8d3c4c2bd7fcd40b8e44b6e7331c1b5e1fd5cd51c8a6ff8a2051bc8280b1d88c33836001015460405161072b929190611537565b60405180910390a1505050565b60606003805480602002602001604051908101604052809291908181526020016000905b82821015610860578382906000526020600020906003020160405180608001604052908160008201805461078f9061158f565b80601f01602080910402602001604051908101604052809291908181526020018280546107bb9061158f565b80156108085780601f106107dd57610100808354040283529160200191610808565b820191906000526020600020905b8154815290600101906020018083116107eb57829003601f168201915b50505050508152602001600182015481526020016002820160009054906101000a900460ff161515151581526020016002820160019054906101000a900460ff1615151515815250508152602001906001019061075c565b50505050905090565b6003818154811061087957600080fd5b906000526020600020906003020160009150905080600001805461089c9061158f565b80601f01602080910402602001604051908101604052809291908181526020018280546108c89061158f565b80156109155780601f106108ea57610100808354040283529160200191610915565b820191906000526020600020905b8154815290600101906020018083116108f857829003601f168201915b5050505050908060010154908060020160009054906101000a900460ff16908060020160019054906101000a900460ff16905084565b600160009054906101000a900473ffffffffffffffffffffffffffffffffffffffff1681565b600160009054906101000a900473ffffffffffffffffffffffffffffffffffffffff1673ffffffffffffffffffffffffffffffffffffffff163373ffffffffffffffffffffffffffffffffffffffff1614610a01576040517f08c379a00000000000000000000000000000000000000000000000000000000081526004016109f890611321565b60405180910390fd5b6000811015610a45576040517f08c379a0000000000000000000000000000000000000000000000000000000008152600401610a3c9061160d565b60405180910390fd5b600360405180608001604052808481526020018381526020016001151581526020016000151581525090806001815401808255809150506001900390600052602060002090600302016000909190919091506000820151816000019080519060200190610ab3929190610b67565b506020820151816001015560408201518160020160006101000a81548160ff02191690831515021790555060608201518160020160016101000a81548160ff02191690831515021790555050507f42b4ffa6b26ed6a5ced111f7f6726ffca1ed194bf62f22f151829f2670514b8f828260016000604051610b379493929190610f0e565b60405180910390a15050565b60008054906101000a900473ffffffffffffffffffffffffffffffffffffffff1681565b828054610b739061158f565b90600052602060002090601f016020900481019282610b955760008555610bdc565b82601f10610bae57805160ff1916838001178555610bdc565b82800160010185558215610bdc579182015b82811115610bdb578251825591602001919060010190610bc0565b5b509050610be99190610bed565b5090565b5b80821115610c06576000816000905550600101610bee565b5090565b6000604051905090565b600080fd5b600080fd5b6000819050919050565b610c3181610c1e565b8114610c3c57600080fd5b50565b600081359050610c4e81610c28565b92915050565b600060208284031215610c6a57610c69610c14565b5b6000610c7884828501610c3f565b91505092915050565b610c8a81610c1e565b82525050565b6000602082019050610ca56000830184610c81565b92915050565b600081519050919050565b600082825260208201905092915050565b6000819050602082019050919050565b600081519050919050565b600082825260208201905092915050565b60005b83811015610d11578082015181840152602081019050610cf6565b83811115610d20576000848401525b50505050565b6000601f19601f8301169050919050565b6000610d4282610cd7565b610d4c8185610ce2565b9350610d5c818560208601610cf3565b610d6581610d26565b840191505092915050565b610d7981610c1e565b82525050565b60008115159050919050565b610d9481610d7f565b82525050565b60006080830160008301518482036000860152610db78282610d37565b9150506020830151610dcc6020860182610d70565b506040830151610ddf6040860182610d8b565b506060830151610df26060860182610d8b565b508091505092915050565b6000610e098383610d9a565b905092915050565b6000602082019050919050565b6000610e2982610cab565b610e338185610cb6565b935083602082028501610e4585610cc7565b8060005b85811015610e815784840389528151610e628582610dfd565b9450610e6d83610e11565b925060208a01995050600181019050610e49565b50829750879550505050505092915050565b60006020820190508181036000830152610ead8184610e1e565b905092915050565b600082825260208201905092915050565b6000610ed182610cd7565b610edb8185610eb5565b9350610eeb818560208601610cf3565b610ef481610d26565b840191505092915050565b610f0881610d7f565b82525050565b60006080820190508181036000830152610f288187610ec6565b9050610f376020830186610c81565b610f446040830185610eff565b610f516060830184610eff565b95945050505050565b600073ffffffffffffffffffffffffffffffffffffffff82169050919050565b6000610f8582610f5a565b9050919050565b610f9581610f7a565b82525050565b6000602082019050610fb06000830184610f8c565b92915050565b600080fd5b600080fd5b7f4e487b7100000000000000000000000000000000000000000000000000000000600052604160045260246000fd5b610ff882610d26565b810181811067ffffffffffffffff8211171561101757611016610fc0565b5b80604052505050565b600061102a610c0a565b90506110368282610fef565b919050565b600067ffffffffffffffff82111561105657611055610fc0565b5b61105f82610d26565b9050602081019050919050565b82818337600083830152505050565b600061108e6110898461103b565b611020565b9050828152602081018484840111156110aa576110a9610fbb565b5b6110b584828561106c565b509392505050565b600082601f8301126110d2576110d1610fb6565b5b81356110e284826020860161107b565b91505092915050565b6000806040838503121561110257611101610c14565b5b600083013567ffffffffffffffff8111156111205761111f610c19565b5b61112c858286016110bd565b925050602061113d85828601610c3f565b9150509250929050565b7f6f6e6c7920656d706c6f79657200000000000000000000000000000000000000600082015250565b600061117d600d83610eb5565b915061118882611147565b602082019050919050565b600060208201905081810360008301526111ac81611170565b9050919050565b7f496e76616c696420696e64657800000000000000000000000000000000000000600082015250565b60006111e9600d83610eb5565b91506111f4826111b3565b602082019050919050565b60006020820190508181036000830152611218816111dc565b9050919050565b7f4e487b7100000000000000000000000000000000000000000000000000000000600052603260045260246000fd5b7f616c726561647920756e6c6f636b656400000000000000000000000000000000600082015250565b6000611284601083610eb5565b915061128f8261124e565b602082019050919050565b600060208201905081810360008301526112b381611277565b9050919050565b60006020820190506112cf6000830184610eff565b92915050565b7f6f6e6c7920667265656c616e6365720000000000000000000000000000000000600082015250565b600061130b600f83610eb5565b9150611316826112d5565b602082019050919050565b6000602082019050818103600083015261133a816112fe565b9050919050565b7f636f6e7472616374206c6f636b65642f7265656e7472616e742063616c6c0000600082015250565b6000611377601e83610eb5565b915061138282611341565b602082019050919050565b600060208201905081810360008301526113a68161136a565b9050919050565b7f756e6c6f636b2072657175657374206669727374000000000000000000000000600082015250565b60006113e3601483610eb5565b91506113ee826113ad565b602082019050919050565b60006020820190508181036000830152611412816113d6565b9050919050565b7f616c726561647920706169640000000000000000000000000000000000000000600082015250565b600061144f600c83610eb5565b915061145a82611419565b602082019050919050565b6000602082019050818103600083015261147e81611442565b9050919050565b600081905092915050565b50565b60006114a0600083611485565b91506114ab82611490565b600082019050919050565b60006114c182611493565b9150819050919050565b7f5472616e73666572206661696c65640000000000000000000000000000000000600082015250565b6000611501600f83610eb5565b915061150c826114cb565b602082019050919050565b60006020820190508181036000830152611530816114f4565b9050919050565b600060408201905061154c6000830185610f8c565b6115596020830184610c81565b9392505050565b7f4e487b7100000000000000000000000000000000000000000000000000000000600052602260045260246000fd5b600060028204905060018216806115a757607f821691505b602082108114156115bb576115ba611560565b5b50919050565b7f616d6f756e742073686f756c64206265203e3d30000000000000000000000000600082015250565b60006115f7601483610eb5565b9150611602826115c1565b602082019050919050565b60006020820190508181036000830152611626816115ea565b905091905056fea2646970667358221220f876750fd3ef3fcf904e13319d4139af69b59747c8015c48a2c3757e35bd7a0764736f6c63430008090033",
  "immutableReferences": {},
  "source": "// SPDX-License-Identifier: MIT\r\npragma solidity >=0.4.21 <0.9.0;\r\n// allows to pass arrays, structs, dynamic and nested variables to function and return same from functions\r\npragma experimental ABIEncoderV2;\r\n\r\ncontract Delance {\r\n  // properties of freelancer-employee contract\r\n  address payable public employer;\r\n  address payable public freelancer;\r\n  uint public deadline; // deadline will start counting from time of uploading the block\r\n\r\n  constructor (address payable _address, uint _deadline) payable {\r\n    require(_address != msg.sender, 'employer cannot hire himself');\r\n    employer = payable(msg.sender);\r\n    freelancer = _address;\r\n    deadline = block.timestamp + _deadline;\r\n  }\r\n\r\n  // this function is used if anyone wants to send ether to the contract.\r\n  // It could be employer, freelancer, or even you, or me :)\r\n  receive() external payable {}\r\n\r\n  // implementing the freelencer sending request part of the contract.\r\n  // struct to store payment request of freelancer.\r\n  struct Request {\r\n    string title;\r\n    uint256 amount; // why uint256?? - same as uint, no difference\r\n    bool locked;  // initialially request will be locked, employer will unlock it and transfer required ehther.\r\n    bool paid;\r\n  }\r\n\r\n  // creating a modifier - function restrictor so only freelancer call call certain functions\r\n  // it is useful if you do not want to repeat require statement again and again.\r\n  modifier onlyFreelancer() {\r\n    require(msg.sender == freelancer, 'only freelancer');\r\n    _;\r\n  }\r\n  \r\n  event RequestCreated(string _title, uint256 _amount, bool locked, bool paid);\r\n  \r\n  Request[] public requests;\r\n  \r\n  function createRequest(string memory _title, uint256 _amount) public onlyFreelancer {\r\n    require(_amount>=0, 'amount should be >=0');  // should be handled by uint itself\r\n    requests.push(Request(_title, _amount, true, false));\r\n    emit RequestCreated(_title, _amount, true, false);\r\n  }\r\n  function getAllRequest() public view returns(Request[] memory) {\r\n    return requests;\r\n  }\r\n\r\n  modifier onlyEmployer(){\r\n    require(msg.sender == employer, 'only employer');\r\n    _;\r\n  }\r\n\r\n  // event is same as javascript console.log() function.\r\n  // It prints the event to the console. Later, you can listen\r\n  // to these events and use these in UI. Here, you can listen whenever\r\n  // a request is unlocked and update UI accordingly.\r\n  event RequestUnlocked(bool locked);\r\n\r\n  function unlockRequest(uint _index) public onlyEmployer {\r\n    require(_index < requests.length && _index>=0, \"Invalid index\");\r\n    \r\n    // storage keyboard makes var \"request\" behaves as a pointer\r\n    Request storage request = requests[_index];\r\n    require(request.locked == true, 'already unlocked');\r\n    request.locked = false;\r\n\r\n    emit RequestUnlocked(request.locked);\r\n  }\r\n\r\n  // sending money to the freelancer for the request\r\n  // who is paying here ?? employer, contract or price\r\n  bool locked = false;\r\n  event RequestPaid(address payable freelancer, uint amount);\r\n  \r\n  function withdraw(uint _index) public onlyFreelancer {\r\n    require(_index < requests.length && _index>=0, \"Invalid index\");\r\n    require(locked == false, 'contract locked/reentrant call');\r\n    \r\n    Request storage request = requests[_index];\r\n    require(request.locked == false, 'unlock request first');\r\n    require(request.paid == false, 'already paid');\r\n\r\n    locked = true;\r\n    (bool success, ) = freelancer.call{value: request.amount}('');\r\n    \r\n    require(success, 'Transfer failed');\r\n    request.paid = true;\r\n    locked = false;\r\n    emit RequestPaid(payable(msg.sender), request.amount);\r\n  }\r\n\r\n}\r\n",
  "sourcePath": "D:\\IBC DApp\\delance-with-frontend\\contracts\\Delance.sol",
  "compiler": {
    "name": "solc",
    "version": "0.8.9+commit.e5eed63a.Emscripten.clang"
  },
  "schemaVersion": "3.4.3",
  "updatedAt": "2021-10-02T13:39:55.298Z",
  "networkType": "ethereum",
  "devdoc": {
    "kind": "dev",
    "methods": {},
    "version": 1
  },
  "userdoc": {
    "kind": "user",
    "methods": {},
    "version": 1
  }
}